:020000040800F2
:20000000DFF830D072B671B60B480021016000200A490B4A00F008F800200A49054A00F07B
:2000200003F872B60848004741F8040B9142FBD37047000000800204000088A0AC200104E7
:2000400084D9010400700204E1A0000440BA704740BA704740BA704740BA704740BA7047CE
:2000600040BA704740BA704740BA704740BA704740BA704740BA704740BA704740BA7047F8
:2000800040BA704740BA704740BA704740BA704740BA704740BA704740BA704740BA7047D8
:2000A00040BA704740BA704740BA7047C0BA7047C0BA7047C0BA7047C0BA7047C0BA704738
:2000C000C0BA7047C0BA7047C0BA7047C0BA7047C0BA7047C0BA7047C0BA7047C0BA704798
:2000E000C0BA7047C0BA7047C0BA7047C0BA7047C0BA7047C0BA7047C0BA7047C0BA704778
:20010000C0BA7047C0BA7047C0BA70474FEA3000704700004FEA3000704700004FEA3000A3
:20012000704700004FEA3000704700004FEA3000704700004FEA3000704700004FEA30003F
:20014000704700004FEA3000704700004FEA3000704700004FEA3000704700004FEA30001F
:20016000704700004FEA3000704700004FEA3000704700004FEA3000704700004FEA3000FF
:20018000704700004FEA3000704700004FEA3000704700004FEA3000704700004FEA3000DF
:2001A000704700004FEA3000704700004FEA3000704700004FEA3000704700004FEA3000BF
:2001C000704700004FEA3000704700000CB542691144491CCDE90012914204D94169009A66
:2001E0009142FBD30CBD41699142FCD24169009A9142FBD30CBD70B52A4C0546207830B935
:200200000C220021A06800F03EF8012020702946A068FFF7DBFF012070BD70B5214C05463E
:20022000607830B900221021606800F02CF801206070E8034FF47A71B0FBF1F16068FFF779
:20024000C5FF012070BD70B5164C0D46012618B101280BD0002070BD607828B90022102165
:20026000606800F010F86670606808E0207828B90C220021A06800F006F82670A068406933
:200280002860012070BD084B10B5D3F80843640702D50424C3F82843114341603121016022
:2002A00010BD0000A0200104000001A22C4A116810B1012802D0FEE7506800E0106CC0079E
:2002C00001D041F0100141F008001060704724480168244A1140016001688907FCD4016884
:2002E00021F00801016001680907FCD470471C49034600200A68012B42F00C0201D142F0D3
:2003000080520A600A689207FCD50A68D207FCD1704710B50446FFF7EAFF2046BDE81040AD
:20032000D5E730B5002305461C4606E020460C46090A5B1C60F31F24DBB20029F6D1002BE6
:200340000CD02846FFF7B2FF0748046004480361002141612846BDE83040DAE730BD000055
:20036000000004A0EBFFFFEF000804A008B50020009069460120FFF766FF08B1009808BDA7
:20038000FEE740EA01039B0703D009E008C9121F08C0042AFAD203E011F8013B00F8013BCC
:2003A000521EF9D27047D2B201E000F8012B491EFBD270470022F6E710B513460A46044620
:2003C0001946FFF7F0FF204610BD3EB5CA17CB0F002450405140C0186141DA0740F23343B0
:2003E0000094CDE901232246234600F02AF803B030BD000030B5041E71F1000404DB4FF081
:200400000044404264EB0101141E73F1000405DB1C464FF00043524263EB0403994208BFDC
:20042000904230BD10B5141E73F1000408DA401C41F1000192185B411A4301D120F00100A7
:2004400010BD2DE9F04D92469B4611B1B1FA81F202E0B0FA80F22032904600F040F804464B
:200460000F4640EA0A0041EA0B0153465A46084313D0114653EA010019D0C8F14002504646
:2004800000F03CF805460E4650465946424600F026F8084305D0012004E020463946BDE81F
:2004A000F08D0020054346EAE0762C4337430A986305E40AA0EB08000022FD0A44EA47546B
:2004C0000A3002D500200146E9E7010510196941DDE9084500196941BDE8F04DA2E7202A70
:2004E00004DB203A00FA02F1002070479140C2F1200320FA03F3194390407047202A04DB3C
:20050000203A21FA02F00021704721FA02F3D040C2F12002914008431946704740F0010044
:20052000004700000149C96800F002B82420010410B520F07842002009E000BF51F83040F6
:20054000944202D89B68934206D8401C80B201EBC003DC68002CF1D101EBC000406810BDA5
:20056000F0B50D4C002202EB820304EB430500216B7805E06E18475CB678BE4202D1491C3A
:200580008B42F7DC8B4201D10120F0BD521C052AE9DB0020F0BD0000500C0104034900EB88
:2005A000800001EB4000103070470000400C01042DE9FC41144CB4F90200002821DA6A4612
:2005C0004FF0006100200AF0A7FE104D00216E4601EB810205EB420300205A7806E01F18D7
:2005E00036F810C0BF78674502D1401C8242F6DC824201D1618002E0491C0529E8DBB4F9F9
:200600000200BDE8FC81000020200104500C01042DE9F041002000F049F8214841680268FC
:2006200001EB011102EBC10540226988016105F10801C16040311B48FFF7A3FE1A4C184803
:2006400000261430C4F8AC00A4F1E000C4F8B00000F11C07A4F8C660F8434FF00062C4E988
:2006600000022146A1F58E706B6802F011F8783014D00C4801F02AFFA4F1840501462860C8
:200680003A46002001F002FFA4F58E706761C5E9010485F880600020BDE8F081FEE700003E
:2006A00024200104E0D501043CD7010410B5074C40B9FFF77DFF6060002800DAFEE7FFF7FF
:2006C0006DFFA0600248206010BD000024200104940C010410B50B6850F83340944205D18A
:2006E00000EBC3004168491C416010BD5B1C0B6000EBC30301245C60096840F8312010BD95
:200700002DE9F0470C460746002698469146354640211046FFF74EFE002211462AE000BF5C
:2007200008EBC6004068904201D80022761C58F8360001448F421CD8C81B844200D2204688
:2007400059F83530834208D109EBC503D3F804C00CF1010CC3F804C009E003B16D1C09EB57
:20076000C5034FF0010CC3F804C049F835000744241A521C002CD3D10020BDE8F0872DE957
:20078000F047471800249A469046054626464FF0010919E051462846FFF7CAFE66B158F8C6
:2007A0003410814205D108EBC4014A68521C4A6008E0641C092C0CD008EBC40248F8340034
:2007C000C2F804900544761CBD42E3D30020BDE8F0870620FBE7FFF71BBF2DE9FF4F91B082
:2007E0001D461E9C581C00D0012092460B9181464FF4805622680027314620469047069028
:2008000060B12268314620469047079030B1119801F045FB06F09EFD002806DA022015B0B7
:20082000BDE8F08F464501D01FE0B04642F210710220401C8842FCDB4FF022408068A0F551
:200840001451233907D1BAF1006F04DD4246AAF10060069902E042465046069906F080FDD0
:2008600008B10820DBE7C2440026A8EB0600C7F58051CDE909100020B9F1000F03D0A9421D
:2008800001D9012009950AA9CDE9001006980DAA02928319079809AAC119119801F096F96C
:2008A00083460A9807990644099807442D1A3A460B9802F007F848B16268204606999047FD
:2008C00062682046079990470920A8E70B98384400270B90BBF1000F24D1B9F1000F00D09F
:2008E00005B3DDE9091008430BD0002D9AD162682046069990476268204607999047002036
:200900008DE7B9F1000F03D19DF83400012809D062682046069990476268204607999047BE
:2009200001207CE762682046069990476268204607999047584672E710B504460AF06AFD7F
:20094000054900EB001001EBC0012046BDE810400831FFF7EDBD0000940C010400207047F1
:2009600070B514460D4606460AF054FD0146064801EB011100EBC103224629463046BDE8DA
:2009800070400833FFF7FBBE940C010410B50AF041FD034900EB001001EBC000406810BDB3
:2009A000940C01040120704710B50AF033FD034900EB001001EBC000806C10BD940C01047A
:2009C00008B520B1012829D04FF0FF3008BD1448016EC907FCD0016E41F4E0610166002160
:2009E000C0F890100F4AC0F8902000BFD0F890201206FBD50C4AC0F8902000BFD0F89020CA
:200A00001206FBD4094AC0F890200091491C0091FF29FBD3016E21F4E0610166002008BDA6
:200A2000000005A000000F3000000F7000000F1012480021816012480122C0F8482100BF7B
:200A4000D0F848219207FBD5C0F84811D0F848219207FBD44FF05A320A604A60D0F860113A
:200A6000C907FBD00749C0F860110749C0F86011D0F86011C907FBD070470000000011A2AB
:200A8000000005A00000030F0000430802494FF000604860704700003CD701047FB5054674
:200AA0001E46684601F075FC00282CD132466946284600F04BF8002825D1039840F6FF7176
:200AC000B0F1804F01D3144903E0B0F5800F00D3124944188C43844200D20446686910B191
:200AE000A86AA04209D03146284601F0C4F93268214630469047686138B1AC629DE80F00F4
:200B000085E80F00002004B070BD3146284601F0BCF90220F7E70000FFFF3F00FFFF0F0083
:200B20007FB504461D46684601F033FC00280BD12A466946204600F009F8002804D19DE80A
:200B40000F0084E80F00002004B070BD70B50546087809794FF440740844844028691646A4
:200B600004F2367410B1686DA0420AD01146284601F08BF932686100304690476C652861A7
:200B800008B1002070BD022070BD2DE9F74FD0E90D519AB0D0F810E01191C16B1791016CA8
:200BA0001691416C1991027A012101FA02F2521E149202799140491E139101681891D0F863
:200BC0001480816A0D91D0E90BA1446A099100210791D0E907318269149FB3F1807F0AEA6C
:200BE00007090EEB451707EB490CCDF804C0BCF8007004D212F8016B1B0246EA0121DE0AF9
:200C00007E43B1427DD2C7F5006307EB5313ACF80030099FB1460EF66C665AEA070313D0E0
:200C2000D4B123464344139F13F801CC189BC3F108032CFA03FC0AEA0703189FBB406344C7
:200C400003EB430306EB43260AF1010A072D7DD2042D03D22B4602E00D9BE3E70323ED1A85
:200C60007788B9F1807F05D212F8013B4FEA092943EA01214FEAD9237B43994207D29C466C
:200C8000C7F5006307EB53137380022306E0A9EB030CC91AA7EB5713738003239946BCF1B8
:200CA000807F36F819B005D212F8013B4FEA0C2C43EA01214FEADC2707FB0BF7B94209D24B
:200CC0003B46CBF5006C0BEB5C1726F819704FEA490709E0ACEB0703C91BABEB5B1726F83A
:200CE00019704FEA49077F1CBB46B3F1807F36F81BC004D212F8017B1B0247EA0121DF0AE5
:200D000000E0B9E207FB0CF7B94209D2B946CCF500630CEB531726F81B704FEA4B0309E0E0
:200D2000A3EB0709C91BACEB5C174FEA4B0326F81B705B1C9B46B9F1807F36F81B301093DA
:200D400007D24FEA092912F8013B00E0ACE043EA0121109B4FEAD9275F43B9420AD23B4670
:200D6000109FC7F5006C07EB5C1726F81B704FEA4B070AE0A9EB0703C91B109FA7EB5717E8
:200D800026F81B704FEA4B077F1CB946B3F1807F36F819C004D212F8017B1B0247EA01210F
:200DA000DF0A07FB0CF7B94209D23B46CCF500670CEB571726F819704FEA490708E0DB1B53
:200DC000C91BACEB5C1726F819704FEA49077F1CB946B3F1807F36F819B004D212F8017B65
:200DE0001B0247EA01214FEAD32C0CFB0BFC614509D26746CBF5006C0BEB5C1326F8193017
:200E00004FEA49030AE0A3EB0C07A1EB0C01ABEB5B1C4FEA490326F819C05B1C9B46B7F1A0
:200E2000807F36F81BC004D212F8013B3F0243EA0121FB0A03FB0CF3994209D29946CCF5A6
:200E400000670CEB571326F81B304FEA4B0309E0A7EB0309C91AACEB5C174FEA4B0326F8C1
:200E60001B705B1C9B46B9F1807F36F81BC005D212F8013B4FEA092943EA01214FEAD927CD
:200E800007FB0CF7B94207D23B46CCF500670CEB571726F81B70DEE1A9EB0703C91BACEBEA
:200EA0005C1726F81B70E0E1119BE71A9C4201D20D9B00E000233B444FF4807718F8033050
:200EC00001970A2D01D2032700E006275B000B93ED1B03F4807306F500770A9307EB430307
:200EE0009B1C1593B3F800B0B9F1807F05D212F8013B4FEA092943EA01214FEAD92303FB85
:200F00000BF399420CD29C46CBF500670BEB5713159F3B80022305930A9F019BBB430BE057
:200F2000159FA9EB030CC91AABEB5B133B80032305930A9B03F4807399460B9B06EB4907A5
:200F40005B000B9303EA090307EB43070A93059BBCF1807F07EB43031593B3F800B005D268
:200F600012F8013B4FEA0C2C43EA01214FEADC2303FB0BF399420DD29C46CBF500670BEB7E
:200F80005713159F3B80059B5B0005930A9F29EA07030DE0159FACEB030CC91AABEB5B13F1
:200FA0003B80059B5B005B1C05930A9F09EA070399460B9B06EB49075B000B9303EA09030E
:200FC00007EB43070A93059BBCF1807F07EB43031593B3F800B005D212F8013B4FEA0C2C23
:200FE00043EA01214FEADC2707FB0BF7B9420FD23B46159FCBF5006C0BEB5C1CA7F800C058
:20100000059F7F000597DDF828C029EA0C0710E0ACEB0703DDF854C0C91BABEB5B17ACF824
:201020000070059F7F007F1C0597DDF828C009EA0C07B9460B9F06EB490C7F000B9707EA22
:2010400009070CEB470C0A97059FB3F1807F0CEB47071597B7F800B004D212F8017B1B0285
:2010600047EA0121DF0A07FB0BF7B9420DD2BC46159BCBF500670BEB57171F80059B5B007F
:2010800005930A9F29EA07030DE0A3EB070CC91B159FABEB5B133B80059B5B005B1C059303
:2010A0000A9F09EA070399460B9B06EB49075B000B9303EA090307EB43070A93059BBCF1AC
:2010C000807F07EB43031593B3F800B005D212F8013B4FEA0C2C43EA01214FEADC2707FBBB
:2010E0000BF7B94210D23B46CBF5006C0BEB5C17DDF854C0ACF80070059F7F000597DDF86A
:2011000028C029EA0C0710E0ACEB0703DDF854C0C91BABEB5B17ACF80070059F7F007F1C89
:201120000597DDF828C009EA0C07B9460B9F06EB490C7F000B9707EA09070CEB470C0A9754
:20114000059FB3F1807F0CEB47071597B7F800B004D212F8017B1B0247EA0121DF0A07FB41
:201160000BF7B9420DD2BC46CBF500670BEB5713159F3B80059B5B0005930A9F29EA070342
:201180000DE0A3EB070CC91B159FABEB5B133B80059B5B005B1C05930A9F09EA07039946DB
:2011A0000B9B06EB49075B000B9303EA090307EB43070A93059BBCF1807F07EB4303159351
:2011C000B3F800B005D212F8013B4FEA0C2C43EA01214FEADC2303FB0BF399420DD29C4607
:2011E000CBF500670BEB5713159F3B80059B0A9F4FEA430B29EA07030DE0ACEB030CC91A96
:20120000159BABEB5B171F80059B0A9F5B0003F1010B09EA07030B9FBCF1807F03EA470745
:2012200006EB430303EB470303EB4B09B9F8007005D212F8013B4FEA0C2C43EA01214FEAC6
:20124000DC267E43B14209D23346C7F5006607EB5616A9F800604FEA4B0609E0ACEB0603F0
:20126000891BA7EB5716A9F800604FEA4B06761C08F80460641CFEE3A3EB060B891BA7EB14
:201280005713ACF800300EEB45060A96B6F8807106F5C076BBF1807F05D212F8013B4FEA5B
:2012A0000B2B43EA01214FEADB237B43994209D29B46C7F5006307EB531333800EF2646629
:2012C0000C35B6E0ABEB030CC91AA7EB57133380099B53EA0A0338D00A9BBCF1807F03F5C1
:2012E000CC730093B3F800B005D212F8013B4FEA0C2C43EA01214FEADC2606FB0BF6B142B4
:201300003ED2009BCBF500670BEB57171F80DDF804C0B6F1807FBCF8E0710CF5F07C04D271
:2013200012F8013B360243EA0121F30A7B4399421ED2C7F5006607EB5616ACF80060119E27
:20134000A71BB44205D20D9E04E01DB00120BDE8F08F00263E440AF1010A18F8066008F839
:201360000460641C072D01D20925D8E30B25D6E3A6EB030BC91AA7EB5713ACF8003051E02D
:20138000ACEB0607891B009EABEB5B134FF0807B3380DDF828C05F45BCF8B0610CF5D87CFB
:2013A00004D212F8013B3F0243EA0121FB0A7343994208D29B46C6F5006306EB5313ACF817
:2013C0000030179B2BE0FF1AC91AA6EB5613ACF80030DDF828C05F45BCF8C8610CF5E47CB7
:2013E00004D212F8013B3F0243EA0121FB0A7343994208D29B46C6F5006306EB5313ACF8D7
:201400000030169B09E0A7EB030BC91AA6EB5613ACF80030169E199B1996179E1696119E8A
:2014200017961193072D01D2082500E00B250EF66826BBF1807F3388109305D212F8013B5F
:201440004FEA0B2B43EA0121109B4FEADB275F43B94272D2C3F5006C03EB5C13338006EBE2
:20146000091303F10409DE88B7F1807F04D212F8013B3F0243EA01214FEAD72C0CFB06FC51
:20148000614508D2C6F5006706EB5716A9F802606346022608E0A6EB5616A9F80260A7EBFE
:2014A0000C03A1EB0C010326B346B3F1807F39F81BC004D212F8016B1B0246EA0121DF0A0F
:2014C00007FB0CF7B94209D23E46CCF500630CEB531729F81B704FEA4B0708E0DE1BC91B2C
:2014E000ACEB5C1729F81B704FEA4B077F1CB6F1807F39F817B004D212F8013B360243EAF1
:2015000001214FEAD62C0CFB0BFC614508D26346CBF5006C0BEB5C1629F817607E0009E0A4
:20152000A6EB0C03ABEB5B1629F817607E00A1EB0C01761C083EC0E0FFE7109BABEB070CA3
:20154000A3EB53133380B31C0193C91BB6F802B0BCF1807F05D212F8013B4FEA0C2C43EAD6
:2015600001214FEADC2707FB0BF7B94275D2CBF5006C0BEB5C13DDF804C0B7F1807FACF852
:20158000003006EB091303F58279B3F8066104D212F8013B3F0243EA01214FEAD72C0CFB1A
:2015A00006FC614508D2C6F5006706EB5716A9F802606346022608E0A6EB5616A9F802606D
:2015C000A7EB0C03A1EB0C010326B346B3F1807F39F81BC004D212F8016B1B0246EA012145
:2015E000DF0A07FB0CF7B94209D2CCF500633E460CEB531329F81B304FEA4B0708E0DE1B4A
:20160000C91BACEB5C1C4FEA4B0729F81BC07F1CB6F1807F39F817B004D212F8013B3602C3
:2016200043EA01214FEAD62C0CFB0BFC614508D26346CBF5006C0BEB5C1629F817607E003F
:201640003BE0A6EB0C03ABEB5B1629F817607E00A1EB0C01761C30E0FFE7ACEB0703C91B0C
:20166000DDF804C0ABEB5B1706F50179ACF8007001264FF0807B39F816C05B4504D212F858
:20168000017B1B0247EA0121DF0A07FB0CF7B94208D23B46CCF500670CEB571C29F816C091
:2016A000760007E0DB1BC91BACEB5C1729F816707600761CFF2EDED9F03E07960C2D7DD302
:2016C000042E00D303260EEBC6164FF0807BB6F862C306F558795B4504D212F8016B1B0225
:2016E00046EA0121DF0A07FB0CF7B94208D23E46CCF500630CEB5317A9F80270022706E0AA
:20170000DE1BC91BACEB5C13A9F8023003275E4539F817C004D212F8013B360243EA01219B
:20172000F30A03FB0CF3994208D21E46CCF500630CEB531329F817307F0007E0F61AC91A54
:20174000ACEB5C1329F817307F007F1CB6F1807F39F817C004D212F8013B360243EA0121B0
:20176000F30A03FB0CF3994208D21E46CCF500630CEB531329F817307B0007E0F61AC91A18
:20178000ACEB5C1329F817307B005B1C9B46B6F1807F39F81BC004D212F8013B360243EAD5
:2017A0000121F70A07FB0CF7B9420BD2CCF500660CEB56163B4629F81B6000E077E14FEA11
:2017C0004B0608E0F31BACEB5C1629F81B60C91B4FEA4B06761CB346B3F1807F39F81BC075
:2017E00004D212F8016B1B0246EA0121DF0A07FB0CF7B94209D2CCF500633E460CEB531365
:2018000029F81B304FEA4B0708E0DE1BC91BACEB5C1729F81B704FEA4B077F1CB6F1807F8A
:2018200039F817B004D212F8013B360243EA01214FEAD62C0CFB0BFC614508D26346CBF5DB
:20184000006C0BEB5C1C29F817C07E0009E0A6EB0C03ABEB5B1629F817607E00A1EB0C01F9
:20186000761C403EB346042E45D3B4464FF0FF3606EB5C060A960BF00106B61CBCF10E0F16
:201880003AD20A9F4FF0010906FA07FB0EEB4B07A7EB4C0606F25E5600964E46009FB3F100
:2018A000807F37F816C004D212F8017B1B0247EA0121DF0A07FB0CF7B9420AD23B46CCF551
:2018C00000670CEB5717DDF800C02CF8167076000BE0DB1BC91BACEB5C17DDF800C04BEAEE
:2018E000090B2CF816707600761C0A9F4FEA49097F1E0A97D2D1BCE0DDF828C04FF080797C
:20190000ACF1040C4B4504D212F8017B1B0247EA01215B08C91ACF1707EB46061F40761C63
:201920003944BCF1010CEDD14FEA061BBEF846660EF2446CB3F1807F04D212F8017B1B022A
:2019400047EA0121DF0A7743B94209D2C6F5006306EB5313ACF802300223B94601930AE0CE
:20196000A3EB0709A6EB5613C91BACF8023003234BF0010B0193019EB9F1807F3CF8166022
:2019800005D212F8013B4FEA092943EA01214FEAD923734399420AD29946019FC6F5006331
:2019A00006EB53132CF81730019B5B000CE0019FA9EB0309C91AA6EB56132CF81730019B5E
:2019C0004BF0020B5B005B1CB9F1807F3CF81360109605D212F8016B4FEA092946EA0121ED
:2019E000109F4FEAD9267E43B1420AD2B1463E46C7F5006706EB57162CF813605B000193EE
:201A00000CE0A9EB0609891B109E4BF0040BA6EB56162CF813605B005B1C0193019EB9F158
:201A2000807F3CF8167005D212F8013B4FEA092943EA01214FEAD9267E43B1420AD23346D5
:201A4000C7F5006607EB56166746DDF804C027F81C600BE0A9EB0603891BA7EB571667464D
:201A6000DDF804C04BF0080B27F81C60BBF1FF3F13D0169E00E052E01996179E1696119E92
:201A800017960BF101061196099E66B1099FBB451ED2132D0AD2072509E0079E0C3D06F57F
:201AA0008976079642E0D34512D2F2E70A25079E06F102091B9EB6EB040C09D04E46CC45D5
:201AC00000D3B446119EA71BB44203D20D9E02E044623AE400263E44A9EB0C0707970D9F13
:201AE000E244BF1B67450DD308EB0407A6EB040B07EB0C09644417F80B6007F8016B4F4594
:201B0000F9D10CE018F8067008F804700D9F641C761CBE4200D10026BCF1010CF2D11B9E2A
:201B2000B44203D21C9EB242FFF456A8B3F1807F04D212F8016B1B0246EA01218261C0E951
:201B400007310799C0F82CA044628164119981631799C163169901641999456341641DB05C
:201B60000020BDE8F08F2DE9F04117460D4604464FF48976206B294638B9E26AE068801A85
:201B8000626AAB1A834200D911183A462046FEF7FCFF002818D1206B20B9E16AE06881424C
:201BA00000D320632946204600F086FB606AA84205D2A069B84202D2A06CB042DAD3A06C70
:201BC000B04200D9A6640020BDE8F0812DE9FF4F83B00446DDF840A016680020DAF8008074
:201BE00010609B469146CAF8000000BFCDF80880D4E90901884201D1002060620746C81B7A
:201C0000B04201D2002001E01198B919129A02ABCDE900025A46204600F026F80090029834
:201C2000DAF8001083440144A8EB0008CAF80010606AC51B60692A46C1190498FEF7A1FB5F
:201C40000498761B28440490D9F800004119C9F800100098002803D10DB1002EC6D1002024
:201C600007B0BDE8F08F00002DE9FF4F83B04FF00008119F1D68C3F800801E4692460446B5
:201C8000049900F019FB87F8008004F15C004FF0020B0190D6E0E06C50B925E001991AF8BA
:201CA000013B421CA26543543068401C6D1E3060A06D15B10528F1D303E0052801D2032013
:201CC00024E094F85C0000281ED1D4F85D0094F8601000BA20F0FF00084320624FF0FF30D8
:201CE000E0610020E064A06500200090616A0498814215D3A06C08B9216A31B1109939B1AB
:201D000060B100BF87F800B0A8E00420387001E087F800B0002007B0BDE8F08F01200090B4
:201D2000206DD0B1207821794FF4806308444FF440718140002001F23671226903E000BF55
:201D400022F81030401C8842FAD3012060642064E063A063002060632065A06D18B1804683
:201D60004FF0000936E0142D01D30098A0B12A465146204600F0A8F828B1009909B10228B4
:201D8000C0D152460BE02A4651460198FEF7F9FAA565306828443FE00AEB0502143AC4F874
:201DA00018A020460499FFF7DEFE88BBA169A1EB0A003168824401442D1A316042E000BF56
:201DC0001AF8091004EB080009F1010980F85C1008F10108B8F1140F01D2A945F0D3C4F8EB
:201DE0005880B8F1140F01D3009848B142462046019900F069F860B1009909B1022881D121
:201E0000019AA26120460499FFF7ADFE00B905E024E0316801EB0900306050E7A069001B65
:201E20005C38804503D3A8EB0000814501D20B2071E7A9EB00003168824401442D1A002025
:201E40003160A065A06CB0F5897F7FF424AF206A20B901203870206A0028E9D001205AE7F4
:201E600070B50C46054600F010F821462846BDE87040AFF3008010B50A4604464169536898
:201E8000104698470020606110BD10B50A46044601695368104698470020206110BD002117
:201EA000012241621146AFF3008010B501240023C0E91234836511B1C36204650363002A1F
:201EC00000D0046510BD00002DE9F04F8B1890F80880C66A4FF0010A0AFA08F5B1466D1EF7
:201EE000D0F834C002692E4002EB4C15D0E9077405EB460E4FF0807BBEF800805F4506D29B
:201F0000994277D211F8015B3F0245EA0424FD0A05FB08F5AC427CD2066B02F66C6216B95A
:201F20005FEA09061BD090F804800AFA08F6761E09EA06070668D0F81480B146B740466A54
:201F400006B9866A761E18F80680C9F1080628FA06F807EB080606EB460602EB4622BCF181
:201F6000070F1BD201205F4632F810C0BD4206D29942C6D211F8016B2D0246EA0424EE0A60
:201F800006FB0CF6B44202D23546400003E0AD1BA41B4000401CFF28E6D937E0876B466A14
:201FA000A6EB070CBE4201D2866A00E0002640696644875D4FF4807001267F0007EA0009AA
:201FC00002EB400808EB490C5D453CF8168006D2994296D211F801CB2D024CEA04244FEA62
:201FE000D52C0CFB08FC644506D26546760020EA090009E0D4E00CE07600A5EB0C05A4EBF1
:202000000C0400EA0900761CFF2ED6D94FF0010A4AE17F1B641B02EB4C004FF4C075DC46EE
:202020002D5A674506D29942A3D211F8018B3F0248EA04244FEAD72808FB05F8444506D27C
:202040004FF0000E02F264604FF0020A61E0A7EB0807A4EB0805B0F898814FF0030A6745F9
:2020600006D2994285D211F8014B3F0244EA0525FC0A04FB08F4A5421BD24FF4F070644547
:2020800030F80E7006D29942A3D211F8010B240240EA0525E00A7843854206D2584501D22F
:2020A00099427DD20320BDE8F08FA4EB00082C1A2BE03F1B2C1B4FF4D87567452D5A06D28B
:2020C00099426DD211F8018B3F0248EA04244FEAD72808FB05F8444517D3A7EB0805B0F8C4
:2020E000C801A4EB0804654506D2994258D211F8017B2D0247EA0424EF0A4743BC4201D294
:20210000B84602E0A5EB0708E41B4FF00C0E02F66820D845078807D2994241D211F8015B90
:202120004FEA082845EA04244FEAD8257D43AC4207D200EB06164FF000094FF0080C361D2D
:2021400024E0A8EB050C641B4588DC4507D2994226D211F8017B4FEA0C2C47EA04244FEA36
:20216000DC276F43BC4208D200EB06164FF008093D46CC4606F5827608E0ACEB0705E41B69
:2021800000F501764FF010094FF4807C5FF001005D4536F8108008D2994201D22D0200E0F5
:2021A00086E011F8017B47EA0424EF0A07FB08F7BC4202D23D46400003E0ED1BE41B400022
:2021C000401C6045E4D3A0EB0C004844BEF1040F6AD2042800D3032002EBC01C01205F4675
:2021E0000CF5587CBD423CF8108006D299425FD211F8016B2D0246EA0424EE0A06FB08F670
:20220000B44202D23546400003E0AD1BA41B4000401C4028E6D34038042845D34FF0FF3CDC
:202220000CEB50060E280CD200F0010C0CF1020C0CFA06FC02EB4C02A2EB400202F25E527F
:2022400014E0361FBD4206D2994231D211F8010B2D0240EA04246D08601B0CEBD07028405B
:20226000241A761EEED1042602F244625FF00100BD4232F8108006D2994219D211F801CB8D
:202280002D024CEA04244FEAD52C0CFB08FC644502D26546400005E04000A5EB0C05A4EBAF
:2022A0000C04401C761EE3D15D4503D2994201D30020F8E65046F6E6F0B5846C002C29D01A
:2022C000B4F5897F26D2D0E909372246C91A4669856B914200D20A46016B39B9D0F82CC06B
:2022E000C168A1EB0C0C944500D80163C16A1144C162A11A81640AE0591B521EAB4201D22B
:202300003C4600E000242144715CF1545B1C002AF2D14362F0BD2DE9FF4F9FB081460C463E
:202320002CA8DDE92F6B90E8060400201F68D4F80080186020601D463070052F03D20620CA
:2023400023B0BDE8F08F079006905B4602A8FEF7E7FB0028F4D1CDF81C9002A8CDF83080BA
:20236000FFF79DFD2F60CDE900A62B46414602A8219AFFF779FC05000B98206003D1307876
:20238000032800D10625594602A8FFF77EFD2846D6E7052A0DD30B79D1F8012063F31F62DD
:2023A0004FF480539A4200D21A46C2600978E12901D3042070470922B1FBF2F302FB1313BE
:2023C000B1FBF2F105220360B1FBF2F38360B1FBF2F302FB131141600020704710B5044637
:2023E00090F8800000280BD1D4E901100A6804F10C019047002800DAFEE7012084F88000B4
:2024000010BD00002DE9F0410F460D4920F0006416468D682146284609F02BF90146386067
:20242000401C0AD0284609F014F9B4FBF0F100FB114030600020BDE8F0814FF0FF30FAE701
:20244000B8D6010401460248806809F012B90000B8D6010470B50E46064915468C680146BB
:20246000204609F091F86168401A30442860002070BD0000B8D6010401460248806809F003
:20248000E8B80000B8D601040020704770B50D460646144640211046FDF78CFF044822462A
:2024A0002946C3683046BDE87040FEF768B900002420010410B50146034804F0E1F800280C
:2024C00001D06FF00E0010BDB8D60104024610B50020014606E000BF02EBC104491C646862
:2024E00004FB030052F83130002BF5D110BD00002DE9F0410B4C0E460146A5681746284660
:2025000009F042F869684FF40073401A00EB46213A46204608F0D6F9002801D06FF00D0043
:20252000BDE8F081B8D601042DE9F0410B4C0E460146A5681746284609F026F869684FF4B6
:202540000073401A00EB46213A46204607F056FA002801D06FF00C00BDE8F081B8D6010422
:2025600010B5074C94F90000401D06D1FEF733F90448FFF733FF00202070002010BD000050
:2025800054200104B8D6010410B511B1012904D0FEE7D0F8D410884708E090F8C110C2291E
:2025A00004D140690068B0F5802F01D0002010BDC22010BD70B50C462A4901602A49416015
:2025C0002A4981602A49C1602A4901612A4941612A4981612A49C1612A490025C0E90815E1
:2025E00029498562C0E90B512849C0E90D5103F050FCB0F1807F01D9042000E0032084F8A9
:20260000C50054F8B00F45742168AF20887221689F204872216802200870216820208871F8
:2026200021685220C8712168D82008722168B020887021683020C870216806204870216819
:20264000B92088742168AB20C874216805200874258144F8A45C44F8A85C04F8A05C20743D
:20266000002070BDDD1E0104A11E010443160104871D0104451C0104A71B0104151B0104E0
:20268000BD1A0104451A0104171A01048985000470B505000C466FF0770031D0002C2FD034
:2026A000D4F8B01000292BD0D4F8AC10002927D06260A4F8BA3021462846FFF77BFFD4F869
:2026C000B010AF20887204F1C1010E46204609F038FC94F8C100FF2804D018B13046FDF758
:2026E0003FFF38B9D4F8B0109F2088723146204609F027FC21462846BDE8704000F050B84B
:2027000070BD000010B5D1F8AC000122022302704370082383700423C3703C2303718023F7
:2027200043716023C371D1F8B0302B20D873D1F8B0305873D1F8B0402F23A373D1F8B040A1
:202740000523E372D1F8B0301A73D1F8B0205074162081F8C00091F8C200202819D191F8F4
:20276000C33075207A22182B09D1D1F8B0309870D1F8B030DA7091F8C230202B09D191F84B
:20278000C330162B05D1D1F8B0309870D1F8B000C2700248C1F8D400002010BDA51901044C
:2027A00091F8C120C22A04D0EF2A0AD0F82A0ED0FEE7D1F8C82042F00402C1F8C820FFF797
:2027C000A1BFD1F8C82042F00202C1F8C82000F001B8000010B551F8AC0F012302220370E4
:2027E000427080228270C2703C24047142714A689F2090724A683520D0734A6850734A68F5
:202800000520D072486803734A68752090704A687A20D0701620087501488862002010BD85
:202820006F190104002070472DE9FC43234900224FF48043D1E90001CDE90001204811461A
:20284000C0F800234FF0FF3909EB13231446E84643EA024640F225350023002238F823706B
:202860003F0447EA043700BFC0F80013C0F8086347EA423CC0F800C3D0F800C34CEA050C00
:20288000C0F800C3D0F818C35FEA8C7CFAD5D0F818C35FEACC7C04D0C0F800134846BDE8F4
:2028A000FC83521C012ADFD95B1C012BD5D9641C012CD1D9C0F800130020F0E7380C010495
:2028C000000005A02DE9F05F044692465044401E060B250B28038B46A04200D06D1C4FF023
:2028E000224742F223584FF0006913E0BA682803424505D1484503D90021A0F1006000E020
:20290000002104F0FFFC002803DA6FF00600BDE8F09F6D1CB542E9D9B968414506D14C45B8
:2029200004DD52465946A4F1006002E052465946204604F027FD002802DA4FF0FF30E6E7B4
:202940000020E4E700B5FFF76FFF002801D04FF0FF3000BD074845F23141C0F8701145F2E7
:202960000901C0F8781145F24601C0F88011002070470000000005A030B5144D1F24002020
:20298000C5F89000C5F8D000C5F8D800C5F8E000200640EA044040EA04202043C5F8D80051
:2029A000C5F8D000FFF7CEFF10B1641EF0D501E0002C0ADA01242004C5F8E000FFF7C2FF31
:2029C000002802D0641C1F2CF5DD30BD000005A001050948C0F86011D0F8601141F480312F
:2029E000C0F86011D0F86011C907FBD0D0F86001C0F3072070470000000005A00E48A0F194
:202A000040010268CA6042680A6182684A61C2688A610269CA6142690A6282694A62C269B3
:202A20008A62026ACA62426A0A63826A4A63C26A8A63006BC8637047E81F0104090641EAB4
:202A4000005040F400310748C0F86011D0F8601141F48031C0F86011D0F86011C907FBD02D
:202A600070470000000005A02DE9F047134D0446DDF820902868984616460F46142805D34B
:202A80000FA1002001F0E9FD04F042FB2968114801EB8102491C40F8224000EB82004760F2
:202AA000083080E840030C48296050F82410491C40F824100120BDE8F08700001C2001048B
:202AC000666C757368206275666665722E2E2E0A0D00000000D4010490D5010410B50A4641
:202AE00014A1002001F0B9FD184C19A10020226801F0B3FD206868B101280FD0022811D03D
:202B0000032813D06E231B4A1BA1002001F0A5FD002010BD012020601A4810BD02202060E3
:202B2000194810BD03202060184810BD00202060174810BD5F626C5F616C6C6F6320736938
:202B40007A65203D202564200D0A0000881F01045F626C5F616C6C6F63206C7A6D615F6182
:202B60006C6C6F635F636F756E74203D202564200D0A0000A40A0104653A20257320256433
:202B80000A0D0000002B0104006B010400AB010400BB0104F0B5154B0F210020D3F82422A8
:202BA000D3F83472C2F38026C2F3C015C2F3C004C2F380020DB9072108201EB901F00B0125
:202BC00040F004001CB901F00D0140F002001AB901F00E0140F00100090341EA002007F069
:202BE00001010843C3F83402F0BD0000000001A22DE9FC5F334C40EA012016462080238865
:202C0000314A32A1002001F028FD251F4CF6FF7028800220FDF7EFFA48F6FF702880251DFD
:202C20001EB101202880112000E000202880254940F20120203108802B48006800F07068E6
:202C40002A4801682A4A01F080470E21C2F83812254A4FF0706A0832C2F800A0CA052249E4
:202C6000091D0A604FF0804BC0F804B020882088A14601E0B9F800000004FBD4F020FDF7AE
:202C8000BAFA1048083001881A2251430C0B06B1A4000088B9F80010CDE900102B880A4A0F
:202CA00014A1002001F0D9FC0F490831C1F800A00E48C0F808B00A1FC2F800804760204659
:202CC000BDE8FC9F040404A28C0A010425733A2041424953545F46514D54525F434F4E31AD
:202CE0003D2578200A0D0000300C02A2000002A2000001A225733A2041424953545F465141
:202D00004D54525F434F4E323D25782C434F4E313D25782C444154413D2578200A0D000007
:202D200000487047000001084FF4B010704700000048704700002208002070474FF0006032
:202D40007047000002491120C1F8600370470000000004A20B4810B550F8801F40F2AF14D3
:202D600041F001010160016840F2FC72914341EA84010160026804A1002001F06EFC0848F7
:202D8000446010BD000011A220424C5F4443584F5F4341505F4944203D202575200D0A0067
:202DA000801F01042DE9F84F0024DFF88CA0DFF88C9008254FF4966B4FF0010808FA05F741
:202DC0003C442046DAF8041007F046FC5A460721062003F075FC0646234600901A4618A13E
:202DE000002001F03AFC4E4505D11FA14FF0000001F033FC0FE001D9A4EB070423461A46D8
:202E000021A14FF0000001F028FC4FF47A70FDF7F2F96D1ED2D53346224623A1002001F0A8
:202E20001CFC24B92AA1002001F017FC01242046BDE8F84F07F0C2BD801F010454870E0034
:202E40002064756D70206361706964203D2025752028256429202C2066716D7472203D2057
:202E60002564200A0D000000207461726765742066716D74722039353231343820666F75DA
:202E80006E64200A0D0000002064756D7020636170696420726573756C74203D202575203C
:202EA00028256429200A0D002066696E616C2063616C206361706964203D202564202C20F4
:202EC00066716D7472203D202564200A0D0000002066696E616C2063616C206361706964F0
:202EE000203D2030202C206368616E676520746F2031200A0D00000070B50C48D0F88050B7
:202F000006F096FD044603462A4609A1002001F0A4FB34B1114841682046BDE8704007F032
:202F20009BBB0FA1002001F098FBFEE7000011A220424C5F4443584F5F4341505F494420D5
:202F40003D202575202C206566757365206361706964203D2575200D0A000000801F010403
:202F60004572726F722121212043415049443D3D302121210D0A00002DE9F0418046FFF73C
:202F8000D7FE284901EB4814A168E66847186569FFF7CEFE024624A1002001F05EFB42465E
:202FA0002EA10020236901F058FB424639A10020A36801F052FB424644A10020E36801F0BE
:202FC0004CFB42464FA10020636901F046FB3A465AA1002001F041FB2A4660A1002001F0CA
:202FE0003CFB324665A1002001F037FBFFF7A6FE3C1AFFF7A3FE301A684B2246294604F08A
:2030000058FC02000CD066A1002001F026FB94236B4A6CA1002001F020FB0420BDE8F08166
:203020000020FBE7D82A01047020616464722020202020202020202020202020202020201C
:203040002020202020202020202020202020202020203D202578200A0D000000666F746155
:203060005F686561645F6275662E6D5F62696E5F696E666F5B25645D2E6D5F62696E5F6C46
:20308000656E67746820202020203D202578200A0D000000666F74615F686561645F627578
:2030A000662E6D5F62696E5F696E666F5B25645D2E6D5F62696E5F6F6666736574202020B2
:2030C00020203D202578200A0D000000666F74615F686561645F6275662E6D5F62696E5FB6
:2030E000696E666F5B25645D2E6D5F62696E5F73746172745F61646472203D202578200AE5
:203100000D000000666F74615F686561645F6275662E6D5F62696E5F696E666F5B25645DEC
:203120002E6D5F706172746974696F6E5F6C656E20203D202578200A0D0000006C7A6D61F8
:203140005F736F75726365202020202020202020202020203D202578200D0A006C7A6D61FA
:203160005F646573745F73697A65202020202020202020203D202578200D0A006C7A6D6101
:203180005F646573745F61646472202020202020202020203D202578200D0A00901F010401
:2031A000666F746120636F6D707265737320737461747573203D202564200D0A00000000D8
:2031C000AD0A0104653A2025732025640A0D00002DE9FF5F4448D0E9034102918568A0F50A
:2031E00000600190FFF7AAFDA4EB0008FFF7A6FD02994FF400792144081AA0F1010A404611
:2032000003F0D1FF0390404600F0C8F80090FFF78FFD4419FFF792FDA4EB000B5FE00399B9
:2032200004F070F804000BD040F27D132F4A30A1002001F012FA224630A1002001F00DFAD9
:2032400000980026B0FBF9F74946002C29D02AE00A465846019904F083F8040009D04FF440
:20326000CD73224A22A1002001F0F7F922462CA110E0CB444A464046019904F083F8040087
:203280000CD04FF4D273194A19A1002001F0E5F922462BA1002001F0E0F904E04946C84421
:2032A000761CBE42D4D30098054484B140F2B1130E4A0FA1002001F0D0F92346424629A12C
:2032C000032001F0CAF9042004B0BDE8F09F642002996843B0FBF1F1032000F091FC40468E
:2032E000D0459CD90020EFE7D82A0104140B0104653A2025732025640A0D000068616C5F78
:20330000666C6173685F6572617365202C20737461747573203D202564200D0A00000000E3
:2033200068616C5F666C6173685F72656164202C20737461747573203D202564200D0A00A3
:2033400068616C5F666C6173685F7772697465202C20737461747573203D202564200D0AF4
:20336000000000004572726F72207768656E2070726F63657373696E67206F732062696EB9
:2033800020726177207365656B2025642C2073746174757325640A0D0000000010B5FFF707
:2033A00051F8411C09D0FFF767F80446024607A1002001F052F9204610BDA323084A09A1AE
:2033C000002001F04AF94FF4805010BD626C6F636B2073697A65203D2578200A0D000000A2
:2033E000C50A0104653A2025732025640A0D00002DE9F04FDFF89491A3B04F460024D9F8B4
:203400000880D9F81C60D9F81050FFF791FCB9694718FFF793FC381A2290A9F5006A0DF113
:20342000600B01A804F025FBFFF782FC00EB0807FFF784FC3F1A56A1002001F00EF901A86F
:2034400005F03AFC4FF4007833E000BFD9F8100000902B463A4652A1002001F0FEF84046D2
:20346000854211D302465146384603F079FF040004D14246514601A805F034FCA5F5007504
:2034800007F50077ACB106E02A465146384603F067FF040007D04FF40473484A48A1002068
:2034A00001F0DBF807E02A46514601A805F01AFC01E0002DCAD145A1002001F0CEF81DA97A
:2034C00001A804F061FA14B14FF4087327E043A1002001F0C2F800251DAC43A1625D00200A
:2034E00001F0BBF86D1C142DF7DB3BA1002001F0B4F8142E324606D03CA1002001F0ADF8D0
:2035000040F22F230BE05946229803F029FF02000ED03AA1002001F0A0F840F24523274A59
:2035200027A1002001F099F8052023B0BDE8F08F2AA1002001F091F8002518AE2AA1725D1B
:20354000002001F08AF86D1C142DF7DB22A1002001F083F80020315C225C91420CD02FA143
:20356000002001F07AF84FF41573144A14A1002001F073F80620D8E7401C1428EBDB2DA15D
:20358000002001F06AF80020CFE70000D82A010473686131207374617274200D0A000000E9
:2035A0007368613120757064617465202578202825642F256429200D0A000000260B01041F
:2035C000653A2025732025640A0D0000736861312066696E697368200D0A000064756D70D9
:2035E00020736967203D2000257820007369675F6C656E203D2025640D0A000068616C5F9C
:20360000666C6173685F7265616420737461747573203D202564200D0A000000696E7465F0
:20362000677269747920636865636B206661696C0D0A0000696E74656772697479206368A0
:2036400065636B20706173730D0A00001CB50821684600F0EFF920B140F25733094A0AA13E
:2036600008E00C490098B1EB002F08D0054A4FF4577309A1002000F0F0FF00201CBD0120B3
:203680001CBD0000980B0104653A2025732025640A0D0000004D4D4D657869743A202573FF
:2036A0002025640A0000000010B590B001244021684600F0BFF938B14FF44A730E4A0FA185
:2036C000002000F0CAFF14E00F4900206A4600BF02EB80031B698B4200D00024401C0828F5
:2036E000F6D334B109A1002000F0B7FF012010B010BD0020FBE700007A0B0104653A20258E
:20370000732025640A0D000046554E54666F7461206973207570646174696E670A0D000000
:2037200070B52826FFF704FB0446FFF707FB251A284C29A1002000F090FF32462146284676
:2037400003F00EFE02000CD028A1002000F085FF40F286232D4A2EA1002000F07EFF012060
:2037600070BD1C4C2DA10020226800F076FF34A10020226900F071FF3EA10020A26800F0FE
:203780006CFF49A10020E26800F067FF54A10020E26900F062FF5FA10020A26900F05DFFEC
:2037A00069A10020226A00F058FF74492068B1EB002F0CD072A1002000F04FFF40F29723C3
:2037C000124A13A1002000F048FF022070BD002070BD0000D82A010468616C5F666C6173A5
:2037E000685F72656164200A0D00000068616C5F666C6173685F7265616420737461747541
:2038000073203D2025640D0A000000003E0B0104653A2025732025640A0D0000666F746109
:203820005F686561645F6275662E6D5F6D616769635F766572203D202578200A0D00000003
:20384000666F74615F686561645F6275662E6D5F62696E5F696E666F5B305D2E6D5F626946
:203860006E5F6C656E677468203D202578200A0D00000000666F74615F686561645F6275D7
:20388000662E6D5F62696E5F696E666F5B305D2E6D5F62696E5F6F6666736574203D2025E1
:2038A00078200A0D00000000666F74615F686561645F6275662E6D5F62696E5F696E666FE4
:2038C0005B305D2E6D5F62696E5F73746172745F61646472203D202578200A0D00000000F5
:2038E000666F74615F686561645F6275662E6D5F62696E5F696E666F5B305D2E6D5F736995
:20390000675F6C656E677468203D202578200A0D00000000666F74615F686561645F62753D
:20392000662E6D5F62696E5F696E666F5B305D2E6D5F7369675F6F6666736574203D202536
:2039400078200A0D00000000666F74615F686561645F6275662E6D5F62696E5F696E666F43
:203960005B305D2E6D5F69735F636F6D70726573736564203D202578200A0D00004D4D4DBD
:20398000424C5F464F54415F4845414445525F4745545F4D41474943206661696C0A0D0036
:2039A000124810B50321416000210160FFF74EFE18B9FFF779FE002816D00D4941F6711005
:2039C00088600CA1002000F048FE00F085F8020004D00EA1002000F040FEFEE7BDE81040E2
:2039E0000EA1002000F039BE10BD0000000088A0000005A2737461727420666F74612075E8
:203A00007064617465200A0D00000000464F5441206572726F7225640A0D0000464F544123
:203A20002075706461746520737563636573730A0D0000002DE9F0410E460746FFF778F964
:203A40000446FFF771F90444A4F50074FFF776F9251A32463946284603F082FC04000ED00B
:203A600040F21333094A0AA1002000F0F6FD22460AA1002000F0F1FD0720BDE8F0812A460F
:203A80000EA1002000F0E9FD0020F6E7610B0104653A2025732025640A0D000068616C5F68
:203AA000666C6173685F72656164202C20737461747573203D202564200D0A007265616414
:203AC0002075706461746520696E666F2066726F6D202578200D0A0070B528490020086091
:203AE000FFF7E2FD60B126A1002000F0B6FD2AA1002000F0B2FDFFF713FE040005D00CE000
:203B000000F0B4F80400F2D007E00021022000F077F8FFF76DFC040002D000F063F910E049
:203B20000021032000F06CF8254D286A012815D0FFF74EFB040015D022A100202A6A00F04C
:203B40008CFD204600F04EF927A1002000F085FD2A4941F20920C861204670BD0020FFF744
:203B60000BFAE7E73221042000F04AF8204600F039F96421042000F043F8E9E7881F0104F1
:203B80007570646174696E67206D61726B6572206578697374000000626C5F666F74615FA4
:203BA0006C6F61645F616E645F636865636B5F666F74615F6865616465720A0D000000008E
:203BC000D82A010477726F6E672069735F636F6D707265737365642076616C7565203D2067
:203BE00025780A0D00000000666F746120757064617465206661696C200D0A00000005A22A
:203C000070B586B00D4606461422144901A8FCF7B8FB0024224601A804E000BF50F8221076
:203C2000521C0C44B242F9D350F8220064216843B0FBF1F00A49021941F671108860094881
:203C40004168491C8A4200D34260334606490020009500F002FD06B070BD0000000B0104B6
:203C6000000005A2881F01043410010400B591B040216846FCF79EFB012000900020084AF4
:203C800001906946CDF80C0001EB8003401C1A610828F9D34021684600F004F811B000BD58
:203CA00046554E542DE9F0410F468046FFF740F80446FFF739F80444A4F50074FFF73EF845
:203CC000241A204603F06FFA06004FF4805009D0012E02D0022E05D102E04FF4004001E0A5
:203CE0004FF48030401E24EA000523462A4618A1002000F0B2FC3146284603F003FB020038
:203D00000CD01CA1002000F0A8FCF423214A22A1002000F0A2FC0820BDE8F0813A4641461E
:203D2000204603F02FFB02000BD01EA1002000F094FCFA23174A18A1002000F08EFC0420CF
:203D4000EAE722461FA1002000F087FC0020E3E7657261736520616464723A2025782C20DF
:203D60006D61726B657220616464723A2025780D0A00000068616C5F666C6173685F657220
:203D800061736520737461747573203D2025640D0A000000E30A0104653A20257320256417
:203DA0000A0D000068616C5F666C6173685F777269746520737461747573203D2025640DE9
:203DC0000A00000077726974652075706461746520696E666F2061646472202578200D0A90
:203DE0000000000010B590B0044640216846FCF7E1FA00210A46684600EB8103491C1A6129
:203E00000829F9D340210194FFF74CFF10B010BD01A1002000F021BC5F626C5F6672656524
:203E200020200D0A0000000010B53E4801F0DCFA3D48016841F4700101603CA1002000F037
:203E40000CFC002001F064FA40A1002000F005FCFEF780FFFFF750F840A1002000F0FDFB5E
:203E600043494020C1F8240342A1002000F0F5FB00F00CFB43A1002000F0EFFB02F086F84E
:203E800045A1002000F0E9FB01F0D0FB012200211320FEF7ADFE024645A1002000F0DDFB5F
:203EA000012200210420FEF7A3FE024644A1002000F0D3FB002211460820FEF799FE024684
:203EC00043A1002000F0C9FB45A1002000F0C5FB01F0E2FF47A1002000F0BFFB07F025FBD9
:203EE00049A1002000F0B9FB03F034FA49A1002000F0B3FB03F02EFA4BA1002000F0ADFB8C
:203F00004F49062008654FA1002000F0A6FBFEF741FE54A1002000F0A0FBBDE81040FEF717
:203F200011BF000080BA8C0188ED00E0736574204350313020616E642043503131204675F2
:203F40006C6C204163636573730D0A00626C5F756172745F696E69740A0D000069326320CF
:203F6000636C6F636B20656E61626C65200A0D00000001A2626C5F706D69635F696E6974EB
:203F80000A0D0000637573746F6D5F736574454D49200A0D00000000636C6B5F7365745F6E
:203FA000706C6C5F64636D5F696E6974200A0D00636D3420667265713D25640A0D0000002D
:203FC00075706C6C20667265713D25640A0D000062757320667265713D25640A0D00000084
:203FE000637573746F6D5F736574416476454D49200A0D00637573746F6D5F73657453466F
:2040000049457874200A0D004E4F525F696E6974200A0D0068616C5F666C6173685F696EDE
:204020006974200A0D00000067706461635F7372616D5F706F7765725F646F776E0A0D00A1
:2040400000001BA2636F6E66696720626F6E64696E6720696F2072656769737465720A0D98
:204060000000000044324420494F2070756C6C20646F776E0A0D000030B5164C0023237500
:2040800061B104F1140300BFB1FBF2F402FB1414B1FBF2F10A2C08D230340CE002683021E2
:2040A00011700168491C016030BD102A05D10AA52C4414F80A4C03F8014D0029E4D105E0C6
:2040C000026811700168491C5B1C016019780029F6D130BDAC2201046162636465660000B9
:2040E00010B5FFF7A1FEFFF75BFC01F017F901F051F9002010BD08B5002002460090FF2319
:204100000121282000F073F9022801D0012008BD00F002F8002008BD1CB514210020CDE94D
:2041200000013F230E220121282000F067FA1CBD1CB50121CDE9001003231422282000F00B
:204140005DFA1CBD1CB50121CDE9001003231622282000F053FA1CBD1CB50024FF2322463B
:2041600001216020009400F042F9272801D001201CBD01230094572219466020019400F02F
:204180003DFA00940223632201216020019400F035FA4020CDE90040702387220121602020
:2041A00000F02CFA2120CDE9004031238A220121602000F023FA00940223A12201216020E5
:2041C000019400F01BFA00201CBD1CB51F210020CDE900010B4655220121602000F00EFA02
:2041E0001CBD704770471CB50024FF23012202216B20009400F0FBF885284FF001000AD151
:20420000CDE9004001234B2202216B2000F0F6F900F002F800201CBDF0B593B01C22344904
:2042200009A8FCF7AEF832491C221C3102A8FCF7A8F8FC200024CDE90040FF233E22022116
:204240006B2000F0DBF9DA20CDE90040FF233F2202216B2000F0D2F90120CDE900400346D3
:20426000402202216B2000F0C9F90F980425C7B2CDE900570F234FF49F7202216B2000F002
:20428000BDF908980F23C6B2CDE9005640F2031202216B2000F0B2F9CDE900570F2340F211
:2042A0003F1202216B2000F0A9F9CDE900560F2340F2051202216B2000F0A0F900940123F7
:2042C000402202216B20019400F098F90094FF233E2202216B20019400F090F90094FF2330
:2042E0003F2202216B20019400F088F913B0F0BD000C01047CB506004FF0010500D00025B7
:20430000FC200024CDE90040FF233E2202216B2000F074F9DA20CDE90040FF233F22022144
:204320006B2000F06BF9CDE900460123EC2202216B2000F063F9062607E00123EC2202210E
:204340006B20009600F053F80546002DF5D00094FF233E2202216B20019400F04FF900949F
:20436000FF233F2202216B20019400F047F97CBD7CB506004FF0010500D00025FC2000245D
:20438000CDE90040FF233E2202216B2000F036F9DA20CDE90040FF233F2202216B2000F0C7
:2043A0002DF9CDE900460123ED2202216B2000F025F9062607E00123ED2202216B20009662
:2043C00000F015F80546002DF5D00094FF233E2202216B20019400F011F90094FF233F2239
:2043E00002216B20019400F009F97CBD70477CB51C46069DD3B2012902D0022903D009E0FA
:204400008DF8003006E08DF80130402343EA12228DF8002001AB6A4600F005F89DF8040000
:20442000E84020407CBD10B586B000248DF800000120CDE90330CDE901216946002004F072
:20444000F3FF04F1010410F0FF0FE4B201D00A2CF3D9641E06B0E0B210BD2DE9F0411746BE
:204460000D46064600246B1C3A463146002004F0A9FF04F1010410F0FF0FE4B201D00A2C9A
:20448000F1D9641EE0B2BDE8F08100003EB500256420029002A90095284604F04DFFFFF716
:2044A000A2FE1F4C68B1FFF726FE98B1FFF754FE00282ED01BA1002000F0CFF82348206089
:2044C0003EBD23A1002000F0C8F829482060294860603EBD28A1002000F0BFF82E482060AA
:2044E0002E4860602E48C068009068B12DA1002000F0B3F8C320CDE90050FF231F22012148
:20450000282000F07BF83EBD2CA1002000F0A5F83EBD31A1002000F0A0F83748CFE70000D1
:204520009C1F01040A0D4552524F52203A206E6F742046696E6420616E7920504D494320DD
:2045400043484950204944200A0D0000EDA300040A0D46696E64204D543633383520504DD3
:2045600049432043484950204944200A0D00000071A30004F5A200040A0D46696E64204DCF
:204580004158313437343520504D49432043484950204944200A0D0045A1000431A100044C
:2045A000000005A273797374656D20726573657420627920574454200A0D00007379737458
:2045C000656D207265736574206E6F7420627920574454200A0D00000A0D46696E64204D0F
:2045E000543633323720504D49432043484950204944200A0D000000E5A100042DE9FC4147
:204600008046DDE908671D460C46D0B2012902D0022C1AD001E08DF8000001AB6A4640460C
:20462000FFF701FF9DF80400B540A8438DF80400B74038430DF804006A4621464046FFF774
:204640000CFF40B10020BDE8FC818DF80100402040EA1220DFE70120F5E70FB410B504AAE1
:20466000039900F003F810BC5DF814FB2DE9FC5F92468F4E8F4A00270096377012789042C4
:2046800073D30D464FF078094FF02D0B4FF03008FAE0252804D0009901F8010B0091F2E0D7
:2046A00015F8010F702874D008DC632872D064280BD066286FD06F28F1D111E073286BD0FC
:2046C000752830D07828EAD11CE05AF8041B002904DA0098494200F801BB00900A220DE0EE
:2046E0005AF8041B002904DA0098494200F801BB00900098082200F8018B00906846FFF761
:20470000BBFCC0E05AF8041B002904DA0098494200F801BB00900098102200F8018B00F81D
:20472000019B0090EAE7009C5AF8040B102204F8018B010C04F8019B80B2CDE9004068464A
:20474000FFF79AFC0098011B042913DA0320C1F1030105E0421A224412F8012C2254401E74
:204760008142F7DB0020424602E09FE02254401C8142FBDA241D1022009468460199FFF7EC
:204780007BFC0098011B042916DA0320C1F1030109E014E016E01CE06AE0421A224412F813
:2047A000012C2254401E8142F7DB0020424601E02254401C8142FBDA241D009463E05AF806
:2047C000041BA8E700981AF8041B00F8011B009059E00AF1070020F00700F0E80241824689
:2047E000002907DA009800F801BB00900020644260EB01012046FBF7E8FD9FED2F1B53EC6E
:20480000112BFBF7F7FD05D80A2221466846FFF733FC03E0009800F8018B009000982E21BD
:204820004FF0000200F8011B0090211B42F21070A1FB001022484FF00A04077500F11400BF
:2048400091FBF4F304FB131391FBF4F103F1300302F1010200F8013D042AF1DB04E0009985
:20486000401C01F8012B00910278002AF7D10AE05AF8040B04E00099401C01F8012B0091E0
:204880000278002AF7D16D1C287800287FF401AF009807703046009605E000BF00F020FE6B
:2048A0000098401C009000780028F7D1BDE8FC9FAC2001047C1F0104000000000000F03F2C
:2048C000C122010410B5044604F04EFC90210448FBF770FD204604F071FB002010BD000094
:2048E00060CB01042DE9F047224E8246914696F87C008846032809D0042807D001280BD049
:204900004FF40075022804D018B107E001250328F8D1A021A12703E0706C450AA321A427F1
:2049200005FB08F2504605F08FFD040011D108EB0902521E6A433946504605F085FD0400D5
:2049400007D1002240F2A631504605F07DFD04000DD000215046B46704F0D8FB224606A1C6
:204960000020FFF77AFE4FF0FF30BDE8F0870020FBE7000060CB01047364206572726F72CC
:2049800020737461747573203D202564200D0A0070B54FF0FF3569B10C4C94F88C0058B1EB
:2049A000D4E9142352EA03000AD094F88C00012808D005E006A100E00AA10020FFF74DFE59
:2049C000284670BDC1E90023002070BD60CB0104706172616D65746572206572726F722EB9
:2049E0000D0A000063617264206E6F7420696E697469616C697A652E0D0A00000020704727
:204A000010B54FF0FF3441B1084A92F88C0030B192F87C000870002010BD05A100E009A189
:204A20000020FFF71AFE204610BD000060CB0104706172616D65746572206572726F720DCD
:204A40000A00000063617264206E6F7420696E697469616C697A652E0D0A000010B54FF0A6
:204A6000FF3469B10A4A92F88C0058B1906D0860D06D4860106E8860506EC860002010BDF3
:204A800004A100E008A10020FFF7E7FD204610BD60CB0104706172616D65746572206572D3
:204AA000726F720D0A00000063617264206E6F7420696E697469616C697A652E0D0A0000EA
:204AC0000020704710B54FF0FF3471B10B4890F88C0060B10A4802680A6042684A608268CA
:204AE0008A60C068C860002010BD06A100E00AA10020FFF7B2FD204610BD000060CB010435
:204B0000F0D30104706172616D65746572206572726F720D0A00000063617264206E6F74A0
:204B200020696E697469616C697A652E0D0A000010B54FF0FF3479B10E4A92F88C0068B1F6
:204B400092F87C0001280FD004280DD003280DD002280BD050B10BE007A100E00BA10020F1
:204B6000FFF77BFD204610BD506C00E090690860002010BD60CB0104706172616D6574652B
:204B800072206572726F720D0A00000063617264206E6F7420696E697469616C697A652EB7
:204BA0000D0A000010B54FF0FF3439B1074A92F88C0028B110680860002010BD04A100E02B
:204BC00008A10020FFF749FD204610BD60CB0104706172616D65746572206572726F720D55
:204BE0000A00000063617264206E6F7420696E697469616C697A652E0D0A00002DE9F05FA4
:204C00000E0083464FF0FF3A09D0BBF1000F0BD0814C00BF04F002FA012807D00BE07FA14F
:204C20000020FFF71AFDDEE0814CF3E7584604F0EBF9022842D0584604F0D7F9002158460F
:204C400004F084F9012004F023FB0121584604F07DF90121584604F011FB584604F084FAB6
:204C6000584604F07DF9206A20F40030206290217048FBF79FFB6F4D4FF400794FF0000828
:204C8000C5F80490C5F86C8085F8718085F87080012785F8727085F88C80206840F08000F7
:204CA0002060384604F0F4FA206820F080002060584605F037FB040068D105E05A465EA1F6
:204CC0000020FFF7CAFC8EE0584605F0D3F8FF2807D05846C5F8788005F0E4F9040055D1DF
:204CE00002E06FF0040451E0584605F03FFA04004CD1584605F010FA040047D195F82400E3
:204D000020B1584605F0EEFB04003FD15846E96E05F014FB044610F1260F01D084BB01E0C8
:204D200085F8747043F6C431584604F053FA95F87C0040B1022806D0032804D0012820D0F3
:204D400004281ED04AE0584605F04EFA04001DD13178584600F062F918B1584604F02EF92E
:204D600041E0584604F026FF04000FD195F86B0048B3584605F0F6FA28B385F88E8022E099
:204D800004E0584604F04EF8040016D090212948FBF710FBC5F80490C5F86C8085F87180E6
:204DA00085F8708085F8727085F88C80224628A10020AC67FFF751FCCFE73178584600F00A
:204DC0002DF90028C9D195F87C00042806D1E86CD0F8D400C10D4002C5E9140149465846EF
:204DE00005F058FB10B15046BDE8F09F95F88E0020B9706846F2A811884205D871684CF265
:204E00005030814200D90146584604F0E3F985F88C700020E8E70000000003A07061726112
:204E20006D65746572206572726F720D0A000000000002A060CB01046D7364635F25642073
:204E400075736564206279205344494F0D0A00007364206572726F7220737461747573203B
:204E60003D202564200D0A002DE9FF5F1E465FEA010B4FF000051ED0009808B34E4C206841
:204E800020F0706040F080702060606920F440706061606CDFF824A19AF87C00032811D0C2
:204EA00004280FD001280FD04FF40070012E0ED941F292010DE042A10020FFF7CEFB63E05E
:204EC000444CDCE70120F1E7DAF81C00EEE740F691014243009805F069FA020045D10098D6
:204EE00004F0B2FF020040D170024FEA900800271DE000BFD4F844905FEA590010D04A4622
:204F000035A10020FFF7A9FB5FEA897002D56FF009022AE019F47F7F02D06FF0060224E02C
:204F20006068400703D521694BF825106D1C3846B5EB080177EB0000DCD3009804F014F92E
:204F4000A0680098012E04D005F0D2FA02000CD127E005F005FBF9E7B5F86C008D21020465
:204F6000009805F023FA020013D025A10020CAF87820FFF772FB009804F0F6F8A068012E4E
:204F800002D9009805F0B4FA4FF0FF3004B0BDE8F09F206BC10505D5C0F34320042801D166
:204FA00005E05546009803F0C7FF0028D4D1009804F0DAF80020E9E7000003A060CB010432
:204FC000706172616D65746572206572726F720D0A000000000002A0626C5F73645F7265D3
:204FE00061645F626C6F636B732C205344435F444154535441203D202578200D0A00000078
:205000007364206572726F7220737461747573203D202564200D0A00002070472DE9F04150
:205020000E465FEA00084FF000010ED0324D334C022794F87C0050B1022808D0032806D07A
:20504000012831D004282FD053E02D4DEFE7022E06D194F86A00400702D46FF00D023FE0D1
:205060004046E16E05F0CEF9020039D1022E07D040F68601404605F099F9020030D101E0DE
:205080000222F5E7404604F0DFFE020028D1286A022E03D020F4003028622AE040F40030ED
:2050A000286284F8727024E0022E02D0012E08D008E01449286A40F40030286284F87270D8
:2050C00004E01149286A20F400302862E06C90F8C00005280DD3404603F0D0FE020008D070
:2050E0000AA10020A267FFF7B8FA4FF0FF30BDE8F0810020FBE70000000003A060CB0104DB
:20510000000002A00001B7030000B7037364206572726F7220737461747573203D2025648D
:205120000D0A0000002070472DE9FF5F1E46019817460025B8B10098D0B15C4C206820F0CC
:20514000706040F080702060606920F440706061009804F009F8DFF858A19AF8730048B136
:205160006FF00F0279E053A10020FFF776FA83E0554CE3E79AF87C0003280AD0042808D007
:20518000012808D04FF40070012E07D943F2990106E00120F8E7DAF81C00F5E742F69801FC
:2051A00007FB00F2009805F001F9020055D1009804F04AFE020050D1700200274FEA9008EB
:2051C000BB461DE0D4F844905FEA590010D04A463EA10020FFF741FA5FEA897002D56FF077
:2051E00009023AE019F47F7F02D06FF0060234E06068400704D5019850F8250020616D1C3A
:20520000B5EB08017BEB0700DCD3012E04D1009805F0A6F9020020D1009805F0DFF902003F
:205220001BD1012E08D9009805F0FAF9020014D1009805F05DF903E02BD1009805F090F933
:2052400002000AD125E000BFB5F86C008D210204009805F0ABF8020013D026A10020CAF822
:205260007820FFF7FAF9009803F07EFFA068012E02D9009805F03CF94FF0FF3004B0BDE80A
:20528000F09F206BC10505D5C0F34320042801D105E05546009803F04FFE0028D4D1A06813
:2052A000009803F061FF0020E8E70000000003A060CB0104706172616D6574657220657289
:2052C000726F720D0A000000000002A0626C5F73645F77726974655F626C6F636B732C200B
:2052E0005344435F444154535441203D202578200D0A00007364206572726F7220737461DA
:20530000747573203D202564200D0A000020704701490870704700007C1F010438B50EA168
:205320000020FFF79AF9114C4025C4F8245310A1002004F54574FFF790F96420009069460A
:20534000002003F0F9FF00F0DFF80CA10020FFF784F9256038BD000069326320636C6F6302
:205360006B20656E61626C65200A0D00000001A269326320696E6974200A0D00693263203A
:20538000636C6F636B2064697361626C65200A0D0000000010B5FDF7C3FC0446024604A127
:2053A0000020FFF75AF92046BDE81040FBF7B6B84A756D7020746F20616464722025780AA8
:2053C0000D00000008B54FF6FF70064A06E011788DF800109DF80010490602D4401E80B2A1
:2053E000F5D208BD14000DA0F0B595B00446282237496846FAF7C5FF3549282228310AA82C
:20540000FAF7BFFF3349FF2008603320091F08603148D0F8241341F40041C0F824134FF0DB
:20542000E172B4FBF2F104EB84004000B0FBF2F20A23B2FBF3F503FB152202B901B9491C74
:205440004FF4E1324A43B4FBF2F24FF4807505E04FF4E132491C4A43B4FBF2F2AA42F7D823
:205460004FF4E1344C43B0FBF4F0B0FBF3F403FB1406551E921E194853080327077017482D
:20548000183802788DF850209DF8502042F080040470124C243C2170241D090A2170027078
:2054A0000E49091D0D70091D0B700C4A1DF82610303211700AA9121D11F8261011700770B4
:2054C000001F972101700020207015B0F0BD0000B00B0104080C02A2000001A224000DA076
:2054E00008B508490A788DF800209DF80020ADF80020BDF800209206F4D5024914390870B7
:2055000008BD000014000DA0F8B5164CD4F80C01009015A1002004F58674FFF79EF81B4DD0
:20552000288840F001002880194820600426C4F818624FF44057C4F81C7201F035FF01F067
:2055400077FF288820F00100288000982060C4F80862C4F808720F490020096801B0BDE8B9
:20556000F0400847000001A2626C5F7573625F6C6F775F706F7765725F73657474696E67F8
:205580002073746172740A0D00000000A00701A2FF0F00109C1F010410B504460020E070FF
:2055A000401EE062204603F0ADFC08B1042010BD04F22E2002F05CF9A0F52A41553901D0B5
:2055C000032010BD94F83000E92805D0EB2814D194F83200902810D104F1660002F03DF967
:2055E0000749B1EB002F06D004F1820002F035F90449884201D1002010BD022010BD00005E
:2056000000464154464154330268490A806A5289B1FBF2F1001D04C81AB1914203D3891A90
:20562000F8E7002070470068084470472DE9F04F91B0F94800240390F8480B900C94F84800
:20564000079040F65C7000940D900F9400200590F548DFF8D0B309946FF07F412646C0F8B1
:205660008011F2480F210180F04A42F60100121F1080EE4A20321180111F0880EC4D01204D
:205680002884032005F58375FAF7B5FD4FF48040E88741F6010068871420FAF7ACFD00221D
:2056A00011460B20FDF7A4FA0246E2A10020FEF7D4FFE74DE64F083D4CF6FF7848F6FF7906
:2056C00005F1040A0FA90120FAF7BDFD002038800B21AAF80010A5F80080A5F80090BAF890
:2056E0000010BAF800100091084602E0BAF8000000900004FAD4D648001D0088D549009092
:205700004843040B06B90C940798844202D30B98844201D9192E6FD309A90120FAF793FD36
:2057200009990598234608440F990C9AA0EB010BC9A10020FEF791FF192E03D3D0A10020D3
:20574000FEF78BFF012203210420FDF751FA0246D3A10020FEF781FF002211460B20FDF737
:2057600047FA0246731CD7A10020CDF800B0FEF774FF012200210C20FDF73AFA0246DEA13D
:205780000020FEF76AFF0026E2480390E2480B900C96E248079042F628404FF40A240F96CA
:2057A000B346A8460C2709960D900FA90120FAF74AFDA74801210180112101805046AAF805
:2057C00000704CF6FF72A8F80020A8F80090BAF80010018800910904FBD49D48001D008874
:2057E00000900620FAF707FDCD4900984843050B002E72D072E0FFE70B990398884208D923
:205800000798844205D200994FEA4B00C1EB500012E003990798814208D20B98844205D922
:2058200000994FEA4B0001EB500005E00D990BFB01F00099B0FBF1F08346484200EB8001A9
:205840001BEB410011D00099009BB0FBF1F10391009901EB410149006422B1FBF2F1039A09
:2058600002FB1300B0FBF1F015E0009800EB8001CBEB41000099B0FBF1F103910099039BAB
:2058800001EB41014A006421B2FBF1F2009903FB1100B0FBF2F065490090091F088820F43C
:2058A0007C52039842EA00200880088820F0F002009842EA001008800620FAF79CFC09A95C
:2058C0000120FAF7C0FC09990598039401440F98081A761C0590F5E6FFE70C950798854227
:2058E00002D30B98854201D9192E7CD309A90120FAF7A9FC09992B460BEB01000F990C9A38
:20590000441A88A10020FEF7A8FE192E03D38FA10020FEF7A2FE012200210C20FDF768F97E
:205920000246731C91A100200094FEF796FE3E4C6FF07F40C4F880013D4D002625F8486FB8
:20594000AE8097480680012004F58074FAF753FCA5F8BC6041F20420288191480126C038B5
:20596000068041F60100A5F8B8003220FAF743FC8C48D0F850118C4A1143C0F85011D0F88A
:2059800054118A4A1143C0F85411606920F47C4140F2036001436161A16921F47C41014308
:2059A000A161834DA5F85461E017206081486060012005F5A875FAF71EFC7F48E0607F48B2
:2059C000606040F67F6028800220FAF714FC2005E060C4F800714FF44010C4F8100211B073
:2059E000BDE8F08FFFE70B990398884207D90798854204D200996000C1EB5004EAE0079915
:205A00000398884207D20B98854204D90099600001EB5004DEE0D3E0C045040000CF03007C
:205A2000CCC6030099010300000001A2040904A2000004A24C464F53432066726571206271
:205A400065666F7265204B203D2025640A0D0000080404A2A0F703005B4C464F53435D2012
:205A60004265666F7265204B203D2025642C204166746572204B203D2025640A0D0000009C
:205A80005B4C464F53435D2063616C6962726174696F6E206661696C65640A0D0000000093
:205AA00055504C4C2066726571206D65617375726564206279204C464F5343203D202564CD
:205AC0000A0D00004C464F53432066726571206166746572204B3D2025642C204B202564A7
:205AE0002074696D65732C20746F74616C2025642075730A0D00000048464F5343206672C1
:205B00006571206265666F7265204B203D2025640A0D000020300500A0790400E0480400F6
:205B2000409601005B48464F53435D204265666F7265204B203D2025642C20416674657241
:205B4000204B203D2025640A0D0000005B48464F53435D2063616C6962726174696F6E20CA
:205B60006661696C65640A0D0000000048464F53432066726571206166746572204B3D206E
:205B800025642C204B2025642074696D65732C20746F74616C2025642075730A0D000000C2
:205BA000000704A200000AA20202C0010306C00100001DA200008083FF0F00102B8084C32B
:205BC0006420B4FBF0F00D9948430099B0FBF1F464204443484200EB800014EB400010D039
:205BE000B0FBF1F10391009901EB41014A006421B2FBF1F3009A039901FB1200B0FBF3F08B
:205C000013E001EB8100C4EB4000B0FBF1F103910099009B01EB41014A006421B2FBF1F154
:205C2000039A02FB1300B0FBF1F000900F480188039A21F47C5141EA022101800188009A4A
:205C400021F0F00141EA021101800620FAF7D3FA09A90120FAF7F7FA0999761C0BEB0100BF
:205C60000F990395A0EB010B9FE50000200904A270B51E4C0020A4F84800A4F84C001C491A
:205C8000088001202034FAF7B6FA0126268041F60100A4F82001174D6FF07F41C5F88011D3
:205CA00041F2042121861249C0390E80A4F8E000322005F58075FAF79EFA0F4CA4F8546111
:205CC000E01728600D486860012004F5A874FAF792FA0B48E8600B48686040F67F6020800A
:205CE0000220FAF788FA2805E86070BD000004A2000704A2000001A200001DA200008083B5
:205D0000FF0F00102B8084C34269891E921E8A4201D800207047826A408901FB002070476D
:205D20002DE9F04105680F00804606D001F053FA022809D20120BDE8F081EE6816B168699C
:205D4000B04207D8012605E0411CF4D069698142F1D83E4634466869641CA04202D80224B6
:205D6000022E0AD32146404601F035FA38B10128E1D0411CDFD0B442EDD10020DBE74FF065
:205D8000FF3632462146284603F092FB30B957B122463946284603F08BFB20B101280FD069
:205DA00001242046C7E7EC60D5E90401891E884201D2401E2861287940F001002871F0E72E
:205DC0003446EEE72DE9F0410E4620300D6804460B22202102F0C8FF0020014608272A5C87
:205DE000401C202A12D92F2A0BD05C2A09D02E2A01D0B94214D30B2F22D02E2A20D10CE013
:205E0000401C2B5C2F2BFBD05C2BF9D028443060B1B12078E5281FD020E008210B27DEE718
:205E2000802A03D3114B1A4412F8802C10A300E05B1C93F800C0BCF1000F04D09445F7D1EC
:205E40000620BDE8F081A2F16103192B01D8203AD2B26254491CC2E705202070202A01D878
:205E6000042000E00020E0720020EAE7AC0F0104222A2B2C3A3B3C3D3E3F5B5D7C7F00003A
:205E80004FF4800070474FF0006070474FF4701070474FF48000704710B52948294C816BA7
:205EA000C4F83011C16BC4F83811C16821670169C4F888104169C4F850118169C4F858116F
:205EC000C169C4F8D010016AC4F8D810416AC4F8E010816AC4F8F810C16AC4F80011016B83
:205EE000C4F80811406BC4F81001BC34FCF744FD154844F82C0CBC3CD4F890000006FBD536
:205F00001248C4F8900000BFD4F890000006FBD40F48C4F89000FCF71DFD00F079FA02F0E6
:205F20002AFF30B10BA10020FEF797FB4FF0FF3010BD0FA10020FEF790FB002010BD00008C
:205F4000A81F0104000005A000000F3000000F7000000F10505352414D204D656D6F7279D7
:205F600020546573742050617373212100000000505352414D204D656D6F72792054657300
:205F800074204661696C65642121000000B5FAF74FFDFCF733FD0020FCF71AFD054A1060E8
:205FA0000120FCF715FD50600220FCF711FD9060002000BDA81F0104FEB50C4D002400BF60
:205FC00004EB840105EB810043685A1C0CD0083045C88DE8450055F8212005490020FEF7EF
:205FE0003CFB641C142CEBDBFEBD000000D40104801001042DE9F04104460021056800F0AC
:20600000D8F8002826D12846A16902F07BFF02001FD1E069017899B1C17A01F03F01A17131
:20602000C17A09070FD404F120010B2610F8013B11F8017BDB1B761E04D0002BF6D002E0F1
:20604000042206E02BB10021204600F005F80200D9D01046BDE8F0812DE9F04705460769C5
:20606000046880698946203710B1B7F5001F02D30420BDE8F087F90560D1401CA86169699E
:206080004FF0000829B16089401E10EA572F05D054E02089B0EB571F1DD94FE0284601F0D1
:2060A0009AF8064601281BD9701C33D06069B0423ED8B9F1000F0ED028466969FFF730FE8A
:2060C00006000BD0012E0BD0701C23D0204604F0B7FBF8B906E0C5F81880C9E70720C8E7D8
:2060E0000220C6E74FF40072002104F1300002F03BFE4FF0000831462046FFF705FE4FF04F
:206100000109E0620DE000BF84F80390204604F097FB08B10120ACE7E06A08F10108401C77
:20612000E06261894145EFD8E16AA1EB0800E062314620466E61FFF7E7FDA861C7F3080074
:20614000204430302F61E861002092E770B504460021066800F02DF80DE03046A16902F097
:20616000D1FE50B9E0690078E52809D040B101212046FFF771FF0028EFD0042807D007E0F0
:206180003046A16902F0BEFE050003D00FE0072005460CE020220021E06902F0E5FD0B22FF
:2061A00004F12001E06902F0D5FD0120F070284670BD2DE9F04107680E460546B1F5001F86
:2061C00036D2F00634D12E61AC6824B93878032805D37C6A1CB178894FEA402812E0388981
:2061E000B0EB561F24D9786A12E0284600F0F3FF0446401C1AD0022C1AD37869A04217D910
:20620000A6EB080646452146EFD23846FFF77CFDC5E9054060B100EB5620A861C6F3080010
:2062200038443030E8610020BDE8F0810120FBE70220F9E71CB50A4AD2E90012CDE9001244
:2062400008B101201CBD69460020FEF7D7FC054918B9087820F00100087008781CBD000073
:206260002C1001049C2001047CB5154608B104207CBD1C480078C00701D003207CBD012485
:206280000C292CD2DFE801F029062B12172B2B2B2B2B1F2469460020FEF77AFB00BBDDE9BC
:2062A0000010C20542EA5120286016E011460020FEF73EFC10E029689068421A4FF0000032
:2062C000FEF710FB08E011460020FEF799FB03E011460020FEF7F6FB10B9002400E00424A1
:2062E00020467CBD9C20010410B530B92BB107480078C00703D0032010BD042010BD002052
:20630000FEF7B2FD0028F9D0012010BD9C20010408B1012070470148007870479C2001046F
:2063200010B530B92BB107480078C00703D0032010BD042010BD0020FEF7F6FE0028F9D097
:20634000012010BD9C20010470B50025FFF734FE03F018FC0E4E002456F824303BB122469F
:206360000CA10020FEF779F956F824000544641C142CF1DB2A460FA10020FEF76EF92DB128
:2063800013A1BDE870400020FEF767B918A1F8E790D501047061747465726E2025642C20CA
:2063A0006661696C6564206E756D6265722025640A0D0000746F74616C206661696C656466
:2063C000206E756D6265723A2025640A0D000000534C54204D656D207465737420706174A3
:2063E0007465726E206661696C6564210A0D0000534C54204D656D207465737420706174B0
:206400007465726E2070617373210A0D0000000010B543A10020FEF720F9464C226E46A1D4
:206420000020BC34FEF719F954F84C2C46A10020FEF713F954F8342C47A10020FEF70DF9CA
:2064400054F82C2C48A10020FEF707F962694AA10020FEF702F9E2694BA10020FEF7FDF893
:20646000626A4DA10020FEF7F8F8E26B4EA10020FEF7F3F8626C50A10020FEF7EEF8E26C19
:2064800051A10020FEF7E9F8626D53A10020FEF7E4F8626F54A10020FEF7DFF8E26F56A166
:2064A0000020FEF7DAF8D4F8942057A10020FEF7D4F8D4F89C2059A10020FEF7CEF8D4F873
:2064C000A4205BA10020FEF7C8F80020FCF780FA02465CA10020FEF7C0F80120FCF778FA02
:2064E00002465BA10020FEF7B8F80220FCF770FA02465AA10020FEF7B0F80420FCF768FA9B
:20650000024659A10020FEF7A8F80620FCF760FA0246BDE8104057A10020FEF79EB8000071
:2065200044756D7020454D492053657474696E670A0D0000000005A0454D495F434F4E4DA9
:20654000203D2025780A0D00454D495F47454E41203D2025780A0D00454D495F524443541D
:20656000203D2025780A0D00454D495F444C4C56203D2025780A0D00454D495F49444C43F7
:20658000203D2025780A0D00454D495F49444C44203D2025780A0D00454D495F49444C45EA
:2065A000203D2025780A0D00454D495F4F444C43203D2025780A0D00454D495F4F444C44C0
:2065C000203D2025780A0D00454D495F4F444C45203D2025780A0D00454D495F4F444C469C
:2065E000203D2025780A0D00454D495F494F41203D2025780A0D0000454D495F494F4220F2
:206600003D2025780A0D0000454D495F445352414D203D2025780A0D00000000454D495F4D
:206620004D5352414D203D2025750A0D00000000454D495F4D5245475F5257203D20257825
:206640000A0D00004D5230203D2025780A0D00004D5231203D2025780A0D00004D52322031
:206660003D2025780A0D00004D5234203D2025780A0D00004D5236203D2025780A0D0000FF
:2066800070B5044690F880000E4621F07F4510B92046FBF7A3FEE068A84201D8022070BD3E
:2066A000D4E9011000228B6829469847D4E90110CA68314690470028F1D0062070BD00001F
:2066C0002DE9F041144C07460E4620681546018841F4404101804FF47A784046F9F78BFD9C
:2066E000206881880904FCD40021818046EA0722828001816D1E45F4004101804046F9F731
:206700007AFD206881880904FCD48189008A41EA0040BDE8F0810000801F010438B50446A4
:2067200000F0C0FA002807D16946204604F0B1F8002801D10021216038BD2DE9FE4F0D46B6
:206740000446694604F0A5F8070064D1677C002FFBD1A06A4FF0020A4FF0010804F12C0BCC
:2067600000286AD0691C29D0E068A84200D205466561002D4FD02046691EFEF745FF01466B
:20678000A0610098FFF7C0FA002875D000996D1E4A89521E02EA55221518A08AC005E9D0A4
:2067A000E269AA42E6D0207C00063BD5487801235946FFF7B5FD00286ED12FE002C801913D
:2067C000A16883460225F1B10026AD1C029189462046761C00F0FFFC014601284CD9481CF1
:2067E0005AD009F101008142F1D00198854206D8CBF800600BF10400029A04C083460098CE
:2068000040698842E0D8A06A05600198854203D80021CBF8001097E0112795E0207C00F0FF
:206820007F002074009801232A4640785946FFF75BFD002830D1E56186E0E068A84203D298
:20684000217C890700D405464FF000096069C4F8149005B3009949894E0270B1691E401E02
:20686000B1FBF6F1B0FBF6F2914206D3711E884360612D1AA1690DE04FE0A16849B9002192
:206880002046FFF74DFA0146012846D0481C55D0A160A161D9B927E050E06069AD1B304475
:2068A0006061207C8007204605D5FFF739FA010004D100250DE000F08EFC0146481C3DD071
:2068C00001292AD900984069884226D9A161B542E3D8606928446061E80505D00098FFF787
:2068E00013FAD0B100EB5529E1686069884204D9E060217C41F040012174C00524D0E26900
:206900004A4521D0207C000610D50098012359464078FFF705FD88B904E084F811A00220F1
